S00C0000546573742E7372656378
S11300000C942A000C94C0020C94FE020C943C0044
S11300100C943C000C943C000C943C000C943C006C
S11300200C943C000C943C000C943C000C943C005C
S11300300C943C000C943C000C943C000C943C004C
S11300400C943C000C943C000C94C1030C942106C9
S11300500C943C0011241FBECFE5D4E0DEBFCDBF1D
S113006020E0A0E6B0E001C01D92AC36B207E1F793
S11300700E944C050C9492070C940000EF92FF929E
S11300800F931F93CF93DF93F62E042FCDEC8C9F09
S1130090112D1124169516951695110F912F990F60
S11300A0990F190F982F911B192F682F70E080E07A
S11300B090E00E94F70620E030E040E251E40E9424
S11300C054060E94C606E62EFC9ED12D1124D69518
S11300D0D695D695DD0F8D2F880F880FD80F8F2DCD
S11300E08D1BD82F6F2D70E080E090E00E94F70602
S11300F020E030E040E251E40E9454060E94C6062B
S1130100F62E0C9FC12D1124C695C695C695CC0F0D
S11301108C2F880F880FC80F902F9C1BC92F602F1E
S113012070E080E090E00E94F70620E030E040E2DA
S113013051E40E9454060E94C606062F61E081E045
S11301400E94360586E690E20197F1F7000080E30D
S11301508E0D0E94120580E3810F0E9412058AE32E
S11301600E94120580E38F0D0E94120580E38D0F1B
S11301700E9412058AE30E94120580E3800F0E9408
S1130180120580E38C0F0E94120589E995E101971D
S1130190F1F700C0DF91CF911F910F91FF90EF9085
S11301A00895AF92BF92CF92DF92EF92FF920F9396
S11301B01F93CF93DF93F62E8A01CDEC8C9FD12D24
S11301C01124D695D695D695DD0F9D2F990F990FAD
S11301D0D90F982F9D1BD92F682F70E080E090E0F5
S11301E00E94F70620E030E040E251E40E94540609
S11301F00E94C606D62EFC9EC12D1124C695C69516
S1130200C695CC0F8C2F880F880FC80F8F2D8C1B91
S1130210C82F6F2D70E080E090E00E94F70620E088
S113022030E040E251E40E9454060E94C606B62E15
S1130230B80180E090E00E94F50620E030E04AE753
S113024054E40E9454060E94C606C62E98013695B0
S113025027953695279536952795A5ECB0E20E940B
S11302608307929582958F7089279F70892748EE1E
S113027053E0849F9001859F300D949F300D11248D
S1130280B801621B730B80E090E00E94F50620E049
S113029030E048EC52E40E9454060E94C606A62EA2
S11302A098013695279536952795ABE7B4E10E94DA
S11302B083079695879544E6489F9001499F300DA2
S11302C01124C801821B930B9C01ADECBCEC0E9471
S11302D083077C01F694E794F694E794F694E79404
S11302E098010E948307969587959695879596958C
S11302F087959C01220F331F880F991F880F991F20
S1130300880F991F820F931F081B190B61E082E06D
S11303100E94360586E690E20197F1F7000080E33B
S11303208D0D0E94120580E38D0F0E9412058FE24D
S11303300E94120580E38B0D0E94120580E38C0F4E
S11303400E9412058FE20E94120580E38C0D0E9428
S1130350120580E38A0D0E94120580E38E0D0E942F
S1130360120580E3800F0E941205DF91CF911F9147
S11303700F91FF90EF90DF90CF90BF90AF900895D2
S1130380823429F118F4813439F008958334D1F199
S1130390843409F452C00895413059F42AB381E0F9
S11303A090E002C0880F991F6A95E2F7822B8ABBFE
S11303B0089541115CC02AB381E090E002C0880F27
S11303C0991F6A95E2F7809582238ABB089541308C
S11303D059F427B381E090E002C0880F991F6A9511
S11303E0E2F7822B87BB0895411141C027B381E016
S11303F090E002C0880F991F6A95E2F780958223E6
S113040087BB0895413059F424B381E090E002C0E1
S1130410880F991F6A95E2F7822B84BB08954111D6
S113042026C024B381E090E002C0880F991F6A952A
S1130430E2F78095822384BB0895413059F421B3B7
S113044081E090E002C0880F991F6A95E2F7822B41
S113045081BB089541110BC021B381E090E002C03B
S1130460880F991F6A95E2F78095822381BB0895CE
S1130470823429F118F4813439F008958334D1F1A8
S1130480843409F452C00895413059F42BB381E007
S113049090E002C0880F991F6A95E2F7822B8BBB0C
S11304A0089541115CC02BB381E090E002C0880F35
S11304B0991F6A95E2F7809582238BBB089541309A
S11304C059F428B381E090E002C0880F991F6A951F
S11304D0E2F7822B88BB0895411141C028B381E023
S11304E090E002C0880F991F6A95E2F780958223F5
S11304F088BB0895413059F425B381E090E002C0EF
S1130500880F991F6A95E2F7822B85BB08954111E4
S113051026C025B381E090E002C0880F991F6A9538
S1130520E2F78095822385BB0895413059F422B3C4
S113053081E090E002C0880F991F6A95E2F7822B50
S113054082BB089541110BC022B381E090E002C048
S1130550880F991F6A95E2F78095822382BB0895DC
S1130560823451F018F4813431F00895833429F041
S1130570843421F008956BBB68BB65BB62BB0895EE
S11305801F920F920FB60F9211242F933F934F9304
S11305905F936F937F938F939F93AF93BF93EF93E7
S11305A0FF9380916500863019F41092650003C0B2
S11305B08F5F809365004091630060916800809133
S11305C067000E943E004091690050916A0060916A
S11305D06400809161000E94D100FF91EF91BF916E
S11305E0AF919F918F917F916F915F914F913F91C7
S11305F02F910F900FBE0F901F9018951F920F927E
S11306000FB60F9211242F933F934F935F936F93E1
S11306107F938F939F93AF93BF93EF93FF938091B7
S113062065008130A1F4809167008C3021F481E071
S11306308093670003C08F5F8093670040916300DD
S113064060916800809167000E943E0089C08230FA
S113065099F4809168008B3319F41092680003C0F8
S11306608F5F80936800409163006091680080917F
S113067067000E943E0074C0833099F48091630047
S11306808B3319F41092630003C08F5F809363006F
S11306904091630060916800809167000E943E0071
S11306A05FC0843099F560916400862F8D7F81301E
S11306B071F0653071F089EF860F823060F06A3036
S11306C061F06C3061F0623061F09EE10BC09FE13B
S11306D009C09FE107C09FE105C09FE103C09FE1FE
S11306E001C09CE180916100981304C081E0809373
S11306F0610003C08F5F8093610040916900509155
S11307006A00809161000E94D1002AC08530B1F452
S1130710809164008C3021F481E08093640003C0F4
S11307208F5F809364004091690050916A006091EA
S11307306400809161000E94D10012C0863081F46F
S11307404091690050916A004F5F5F4F50936A0077
S11307504093690060916400809161000E94D1001F
S1130760FF91EF91BF91AF919F918F917F916F9185
S11307705F914F913F912F910F900FBE0F901F905B
S113078018951F920F920FB60F9211242F933F9337
S11307904F935F936F937F938F939F93AF93BF9385
S11307A0EF93FF93809165008130A1F480916700FD
S11307B0813021F48CE08093670003C081508093E2
S11307C067004091630060916800809167000E9417
S11307D03E008AC08230A1F480916800811104C077
S11307E08BE38093680003C081508093680040913C
S11307F0630060916800809167000E943E0074C0AD
S11308008330A1F480916300811104C08BE3809351
S1130810630003C081508093630040916300609142
S11308206800809167000E943E005EC0843091F5AC
S113083060916400862F8D7F813071F0653071F096
S113084089EF860F823060F06A3061F06C3061F0BD
S1130850623061F09EE10BC09FE109C09FE107C0D7
S11308609FE105C09FE103C09FE101C09CE180912D
S11308706100813019F49093610003C0815080932A
S113088061004091690050916A00809161000E946A
S1130890D1002AC08530B1F480916400813021F404
S11308A08CE08093640003C0815080936400409185
S11308B0690050916A0060916400809161000E9417
S11308C0D10012C0863081F44091690050916A00D1
S11308D04150510950936A0040936900609164004B
S11308E0809161000E94D100FF91EF91BF91AF917F
S11308F09F918F917F916F915F914F913F912F9134
S11309000F900FBE0F901F9018958FB780688FBF00
S113091085B7816085BF85B7826085BF85B78860EC
S113092085BF85B7846085BF84B7806484BF8BB777
S113093080628BBF8BB780648BBF8BB780688BBFA3
S11309400895682F81E40E94B00240E065E082E4EB
S11309500E94380240E066E082E40E94380241E0EE
S113096067E082E40E9438028CEC9AE00197F1F788
S113097000C0000040E067E082E40E94380286E69E
S113098090E20197F1F70000089541E060E081E40E
S11309900E94C00141E061E081E40E94C00141E0A5
S11309A062E081E40E94C00141E063E081E40E94CE
S11309B0C00141E064E081E40E94C00141E065E0DF
S11309C081E40E94C00141E066E081E40E94C0012C
S11309D041E067E081E40E94C00141E065E082E417
S11309E00E94C00141E066E082E40E94C00141E04F
S11309F067E082E40E94C0018FEF97ED0197F1F761
S1130A0000C0000088E30E94A1048CE00E94A104BD
S1130A1086E00E94A10481E00E94A10480E80E9473
S1130A20A1040895682F81E40E94B00245E060E0CB
S1130A3082E40E94380246E061E082E40E943802C7
S1130A4041E067E082E40E9438028CEC9AE001976E
S1130A50F1F700C0000040E067E082E40E94380241
S1130A6086E690E20197F1F7000008959FEF980F52
S1130A70923088F4613178F4813031F4862F8F70AC
S1130A8080680E94A1040895823029F4862F8F7013
S1130A90806C0E94A10408950E9451050E9486055D
S1130AA0FDCF109265008BE08093670088E180930E
S1130AB06800109263008EE18093610084E080936B
S1130AC0640080ED97E090936A008093690010922F
S1130AD0600010926600109262000E94C5040E9499
S1130AE085040E943A0640916300609168008091F9
S1130AF067000E943E004091690050916A00609135
S1130B006400809161000E94D10008958091650085
S1130B10811196C080916200813009F091C080916A
S1130B2063008F5F80936300109262008C3339F40A
S1130B30809168008F5F80936800109263008091B9
S1130B4068008C3338F0809167008F5F8093670072
S1130B5010926800809167008D3020F081E08093CE
S1130B60670013C08C3089F480916000813019F4DF
S1130B701092600053C0811151C081E080936000E5
S1130B8080916600882351F049C0809166008111EC
S1130B9045C080916000813009F040C081E08093BD
S1130BA0660090916400892F8D7F813071F09530BB
S1130BB071F089EF890F823060F09A3061F09C30D7
S1130BC061F0923061F02EE10BC02FE109C02FE1FA
S1130BD007C02FE105C02FE103C02FE101C02CE1C4
S1130BE080916100281307C09F5F9093640081E0A7
S1130BF08093610003C08F5F8093610080916400E3
S1130C008C3061F48091690090916A000196909310
S1130C106A008093690081E08093640040916300DE
S1130C2060916800809167000E943E0040916900D5
S1130C3050916A0060916400809161000E94D1002B
S1130C4008951F920F920FB60F9211248F938091E3
S1130C506B00843631F481E08093620010926B0063
S1130C6003C08F5F80936B008F910F900FBE0F9026
S1130C701F90189510926B008FB780688FBF89B74B
S1130C80826089BF83B78F7B83BF83B7886083BF4C
S1130C9083B7816083BF83B78D7F83BF83B784604D
S1130CA083BF88E08CBF08950E9468060C944907AE
S1130CB00E94420758F00E943B0740F029F45F3F2E
S1130CC029F00C94320751110C947D070C943807C9
S1130CD00E945A0768F39923B1F3552391F3951BA6
S1130CE0550BBB27AA2762177307840738F09F5F49
S1130CF05F4F220F331F441FAA1FA9F335D00E2EB6
S1130D003AF0E0E832D091505040E695001CCAF722
S1130D102BD0FE2F29D0660F771F881FBB1F2617E5
S1130D2037074807AB07B0E809F0BB0B802DBF01BC
S1130D30FF2793585F4F3AF09E3F510578F00C948B
S1130D4032070C947D075F3FE4F3983ED4F3869515
S1130D5077956795B795F7959F5FC9F7880F911DAC
S1130D609695879597F90895E1E0660F771F881F98
S1130D70BB1F621773078407BA0720F0621B730B4B
S1130D80840BBA0BEE1F88F7E09508950E94620762
S1130D9088F09F5798F0B92F9927B751B0F0E1F038
S1130DA0660F771F881F991F1AF0BA95C9F714C0E8
S1130DB0B13091F00E947C07B1E008950C947C0757
S1130DC0672F782F8827B85F39F0B93FCCF3869521
S1130DD077956795B395D9F73EF49095809570957E
S1130DE061957F4F8F4F9F4F0895E89409C097FBFB
S1130DF03EF490958095709561957F4F8F4F9F4FEE
S1130E009923A9F0F92F96E9BB279395F695879531
S1130E1077956795B795F111F8CFFAF4BB0F11F4F4
S1130E2060FF1BC06F5F7F4F8F4F9F4F16C088239B
S1130E3011F096E911C0772321F09EE8872F762FD1
S1130E4005C0662371F096E8862F70E060E02AF012
S1130E509A95660F771F881FDAF7880F96958795FE
S1130E6097F9089597F99F6780E870E060E0089526
S1130E709FEF80EC089500240A94161617061806AE
S1130E800906089500240A9412161306140605068A
S1130E900895092E0394000C11F4882352F0BB0F1B
S1130EA040F4BF2B11F460FF04C06F5F7F4F8F4F7E
S1130EB09F4F089557FD9058440F551F59F05F3FB9
S1130EC071F04795880F97FB991F61F09F3F79F068
S1130ED087950895121613061406551FF2CF4695EA
S1130EE0F1DF08C0161617061806991FF1CF86956C
S1130EF07105610508940895E894BB276627772750
S1130F00CB0197F90895A29FB001B39FC001A39F9D
S1130F10700D811D1124911DB29F700D811D11242E
S10B0F20911D0895F894FFCF20
S9030AA250
